:060000000C9461010C9458
:1000060000000C9400000C9400000C9400000C946A
:1000160000000C9400000C9400000C9400000C945A
:1000260000000C9400000C9400000C9400000C944A
:1000360000000C9400000C9400000C9400000C943A
:1000460000000C9400000C9400000C9400000507BE
:100056002060000000000000005F000000070007AD
:1000660000147F147F14242A7F2A12231308646243
:1000760036495522500005030000001C22410000AD
:1000860041221C00082A1C2A0808083E08080050BD
:10009600300000080808080800303000002010086A
:1000A60004023E5149453E00427F400042615149AB
:1000B600462141454B311814127F102745454539D5
:1000C6003C4A494930017109050336494949360612
:1000D6004949291E00363600000056360000000841
:1000E600142241141414141441221408000201515C
:1000F6000906324979413E7E1111117E7F494949EF
:10010600363E414141227F4141221C7F49494941B6
:100116007F090901013E414151327F0808087F00ED
:10012600417F41002040413F017F081422417F402A
:100136004040407F0204027F7F0408107F3E414119
:10014600413E7F090909063E4151215E7F09192971
:1001560046464949493101017F01013F4040403F40
:100166001F2040201F7F2018207F6314081463037C
:1001760004780403615149454300007F414102046C
:1001860008102041417F0000040201020440404063
:100196004040000102040020545454787F484444EF
:1001A600383844444420384444487F38545454181A
:1001B600087E090102081454543C7F0804047800A0
:1001C600447D40002040443D00007F10284400410B
:1001D6007F40007C041804787C0804047838444482
:1001E60044387C14141408081414187C7C0804047D
:1001F600084854545420043F4440203C4040207C4E
:100206001C2040201C3C4030403C44281028440C14
:100216005050503C4464544C4400083641000000A1
:100226007F0000004136080002010204027F4141BE
:10023600417F000103070F1F3F7FFF000000000002
:100246000000000000005031003000503200520023
:100256005475726E3A200058004F00584F2062794C
:100266002054264D00506C61796572203120576903
:100276006E73202100506C617965722032205769B7
:100286006E73202100212044726177202100330003
:10029600340035004F2077696E7321005820776946
:1002A6006E0001002D4E414E00494E4600000A00E8
:1002B6000400420201009202A8020000F894EE2710
:1002C600ECBBF1E0FBBFEBBFE5BF8DE0A2E0BB27D7
:1002D600ED938A95E9F780E098E0A0E6ED93019723
:1002E600E9F7E4EBF2E085919591009761F0A5912D
:1002F600B59105901590BF01F00105900D920197FB
:10030600E1F7FB01F0CFEFE5EDBFE8E0EEBFC0E6B9
:10031600D2E00C9426062697E4E5F0E0E883F9831C
:10032600DE010E94D70626960895E0E0E4BBEFEFD3
:10033600E5BBE0E0E1BBEFEFE2BB08950E947F0E74
:100346006624772488249924AA24BB24E1E0F0E0DB
:100356006F010E943C070E94670C0E948E0C0E944F
:10036600940C0E94B40A0E949B0C0E94A30C0E944B
:10037600B40A0E94AA0C0E94B20C0E94B40AE0E5DC
:10038600EA930E94B90C29F40E94C20CADE5B2E0D2
:1003960004C00E94C20CAFE5B2E00E94B40A00E0BD
:1003A60010E00330E0E01E0774F420E030E0233074
:1003B600E0E03E072CF40E94C70C2F5F3F4FF7CFBB
:1003C6000F5F1F4FEECF0E94D90C5FC00E947F0EB9
:1003D60066247724E5E0F0E0EC15FD059CF1F601D6
:1003E60031966F010E943C07E0E5EA930E948E0C6D
:1003F6000E949B0C0E94AA0C0E94670C0E94B90CDA
:1004060029F40E94C20CADE5B2E004C00E94C20C01
:10041600AFE5B2E00E94B40A00E010E00330E0E08D
:100426001E0774F420E030E02330E0E03E072CF4B1
:100436000E94C70C2F5F3F4FF7CF0F5F1F4FEECFC6
:100446000E94D90CE6E0F0E0EC15FD05F1F4A814E5
:10045600B90434F40E94E10CABE6B2E00E94E80C69
:100466008A149B0434F40E94E10CABE7B2E00E94CC
:10047600E80CA814B90441F40E943C070E94EE0C53
:10048600ABE8B2E00E94E80C59DF0E94860E249683
:100496000895AA93A881A83519F4F40131964F015D
:1004A600A881AF3419F4F50131965F018FDFF401AD
:1004B600309719F40E94940C23C0E130A0E0FA07AB
:1004C60029F40E94F30CADE4B2E01AC0E230A0E0D9
:1004D600FA0729F40E94F30CA2E5B2E011C0E3305A
:1004E600A0E0FA0729F40E94F30CA4E9B2E008C0E0
:1004F600E430A0E0FA0731F40E94F30CA6E9B2E07A
:100506000E94B40AF501309719F40E94A30C23C087
:10051600E130A0E0FA0729F40E94F80CADE4B2E05D
:100526001AC0E230A0E0FA0729F40E94F80CA2E50E
:10053600B2E011C0E330A0E0FA0729F40E94F80CFB
:10054600A4E9B2E008C0E430A0E0FA0731F40E9462
:10055600F80CA6E9B2E00E94B40AF601E130A0E088
:10056600FA0719F40E94B20C23C0E230A0E0FA07A1
:1005760029F40E94FD0CA2E5B2E01AC0E330A0E027
:10058600FA0729F40E94FD0CA4E9B2E011C0E43098
:10059600A0E0FA0729F40E94FD0CA6E9B2E008C023
:1005A600E530A0E0FA0731F40E94FD0CA8E9B2E0BC
:1005B6000E94B40A0C94C106BA93AA93EE81EA93F8
:1005C600ED81EA93EC81EA93AB810E94F00A2896CA
:1005D60008950E94020D50960E94580E309741F4DD
:1005E6000E94070D309721F40E940C0D309779F088
:1005F6000E94120D319751F40E94070D319731F484
:100606000E940C0DE130A0E0FA0709F015C00E9427
:10061600180D0E94180D0E941D0D0E94220D29F42E
:100626000E94EE0C0E942F0D04C00E94EE0C0E9448
:10063600350D2FDF0E943B0D0E943F0D309741F490
:100646000E94070D309721F40E94450D309779F0EE
:100656000E943F0D319751F40E94070D319731F4F6
:100666000E94450DE130A0E0FA0709F01EC0EAE05D
:10067600F0E0FA93EA93FA93EA930E941D0DAAE03A
:10068600B0E09ADF0E943B0D0E943C07042C05282F
:1006960029F40E94EE0C0E942F0D04C00E94EE0C5D
:1006A6000E94350DF6DE0E943B0D0E944B0D3097E1
:1006B60041F40E94510D309721F40E94070D3097A6
:1006C60079F00E944B0D319751F40E94510D3197EC
:1006D60031F40E94070DE130A0E0FA0709F015C0D9
:1006E6000E94180D0E94180D0E94180D0E94220DDE
:1006F60029F40E94EE0C0E942F0D04C00E94EE0CFD
:100706000E94350DC6DE0E943B0DE881F981068008
:1007160017800E940C0DE015F10531F40E94570D6B
:100726001A960E945E0D09F022C00E94510DE23019
:10073600A0E0FA07E1F00E94180D0E94630D0E94E6
:100746001D0DA0E2B0E038DF0E943B0D0E943C0781
:10075600042C052829F40E94EE0C0E942F0D04C0DB
:100766000E94EE0C0E94350D94DE0E943B0DE8813E
:10077600F98104841584A881B9811E960E945E0DB4
:1007860049F4E881F981068417840E94120DE01568
:10079600F10509F01BC00E944B0DE230A0E0FA07FC
:1007A600A9F00E94180D0E941D0D0E941D0D0E94A9
:1007B600220D29F40E94EE0C0E942F0D04C00E9407
:1007C600EE0C0E94350D65DE0E943B0DE881F98135
:1007D600028013800E940C0DE015F10531F40E9491
:1007E600570D1E960E945E0D09F01BC00E94450D16
:1007F600E230A0E0FA07A9F00E94630D0E94180DEE
:100806000E94630D0E94220D29F40E94EE0C0E94A4
:100816002F0D04C00E94EE0C0E94350D3ADE0E9498
:100826003B0DE881F98104801580A881B9811A966B
:100836000E945E0D49F4E881F981028413840E94C6
:10084600120DE015F10509F01BC00E943F0DE230C4
:10085600A0E0FA07A9F00E941D0D0E94180D0E9443
:100866001D0D0E94220D29F40E94EE0C0E942F0DF0
:1008760004C00E94EE0C0E94350D0BDE0E943B0D5B
:10088600E881F981048015800E940C0DE015F105C0
:1008960049F4E881F981008411840E944B0DE0152A
:1008A600F10509F01BC00E943F0DE230A0E0FA07F7
:1008B600A9F00E941D0D0E94180D0E94180D0E949D
:1008C600220D29F40E94EE0C0E942F0D04C00E94F6
:1008D600EE0C0E94350DDDDD0E943B0D229608953B
:1008E600BA93AA93AA81BB81AF3FE0E0BE0709F4A1
:1008F6006DC1AE3FE0E0BE0739F5AC81BD810E9417
:10090600680D11F5AC81BD814D925C92042C0528D1
:1009160031F4EAE00E946E0DAFE5B2E005C0EAE010
:100926000E94760DADE5B2E00E94B40A0E943B0D2E
:10093600042C052821F4E1E0F0E02F0102C0442454
:100946005524F30131963F01AA81BB81AD3FE0E01A
:10095600BE0741F5AC81BD8112960E94680D11F566
:10096600EC81FD8142825382042C052831F4EFE1AB
:100976000E946E0DAFE5B2E005C0EFE10E94760D74
:10098600ADE5B2E00E94B40A0E943B0D042C052896
:1009960021F4E1E0F0E02F0102C044245524F301E4
:1009A60031963F01AA81BB81AB3FE0E0BE0741F52E
:1009B600AC81BD8114960E94680D11F5EC81FD8114
:1009C60044825582042C052831F4E4E30E946E0D1E
:1009D600AFE5B2E005C0E4E30E94760DADE5B2E016
:1009E6000E94B40A0E943B0D042C052821F4E1E084
:1009F600F0E02F0102C044245524F30131963F0153
:100A0600AA81BB81A73FE0E0BE0741F5AC81BD816D
:100A160016960E94680D11F5EC81FD81468257827B
:100A2600042C052831F4EAE00E947E0DAFE5B2E021
:100A360005C0EAE00E94860DADE5B2E00E94B40A68
:100A46000E943B0D042C052821F4E1E0F0E02F0183
:100A560002C044245524F30131963F01AA81BB818B
:100A6600AF3EE0E0BE0741F5AC81BD8118960E941D
:100A7600680D11F5EC81FD8140865186042C052810
:100A860031F4E0E20E947E0DAFE5B2E005C0E0E29F
:100A96000E94860DADE5B2E00E94B40A0E943B0DAD
:100AA600042C052821F4E1E0F0E02F0102C04424E3
:100AB6005524F30131963F01AA81BB81AF3DE0E0A9
:100AC600BE0741F5AC81BD811A960E94680D11F5ED
:100AD600EC81FD8142865386042C052831F4E5E33A
:100AE6000E947E0DAFE5B2E005C0E5E30E94860DEB
:100AF600ADE5B2E00E94B40A0E943B0D042C052825
:100B060021F4E1E0F0E02F0102C044245524F30172
:100B160031963F01AA81BB81AF3BE0E0BE0741F5BC
:100B2600AC81BD811C960E94680D11F5EC81FD819A
:100B360044865586042C052831F4EAE00E948E0D81
:100B4600AFE5B2E005C0EAE00E94960DADE5B2E081
:100B56000E94B40A0E943B0D042C052821F4E1E012
:100B6600F0E02F0102C044245524F30131963F01E1
:100B7600AA81BB81AF37E0E0BE0741F5AC81BD81FC
:100B86001E960E94680D11F5EC81FD8146865786FA
:100B9600042C052831F4E0E20E948E0DAFE5B2E0A8
:100BA60005C0E0E20E94960DADE5B2E00E94B40AEF
:100BB6000E943B0D042C052821F4E1E0F0E02F0112
:100BC60002C044245524F30131963F01A881B9811E
:100BD600AF3FE0E0BE0799F1AE3FE0E0BE0741F56A
:100BE600AC81BD8150960E94680D11F5EC81FD81A6
:100BF600408A518A042C052831F4E4E30E948E0DC4
:100C0600AFE5B2E005C0E4E30E94960DADE5B2E0C3
:100C16000E94B40A0E943B0D042C052821F4E1E051
:100C2600F0E02F0102C044245524F30131963F0120
:100C3600A881B981AD3FE0E0BE0709F47FDBAC8156
:100C4600BD81C7DC9CC167DB70DBEFEFFFEF6F0197
:100C560075DBE9E0F0E0E615F7050CF103B31127C3
:100C660020B33327EFEFF0E0E017F10719F4E217AE
:100C7600F30741F0EDE7F2E0FA93EA931A930A9349
:100C8600D9012EDEE9E0F0E0E615F70539F4F1D0FA
:100C9600A0E0FFDBA8EEB3E00E94320EDACFD5CF9C
:100CA600FFCF0000C09A00000895C098C498C59868
:100CB60008951A93F6DF19B3C098E12F1991089594
:100CC600AA931A93E0E0EABBC19AC298E981EF5F62
:100CD6001E2F10FF02C0C49A01C0C49811FF02C0A3
:100CE600C59A01C0C598E5DFE078E9F718810C944C
:100CF600FF0BAA93A981E4DF0E949E0D0C94FF0BC3
:100D0600E0919002EA93E0918F02EF73E064AE2FD8
:100D1600F0DFE0919002EA93E0919102E86BAE2F4A
:100D2600E8DF0895AA93E981E0938F02E295EF70D8
:100D3600E695E695E0939002E881E0939102E0DF84
:100D46000C94FF0BA0918F02AF5FA0938F02A03887
:100D560018F0E0E0E0938F02E0918F02EF7331F438
:100D6600E0918F02EA93A0919102DCDF0895AA93A5
:100D7600A0919002A5DFC29A0E949E0D2196089529
:100D8600A09190029DDFE0E0EABBC19AC29A91DF92
:100D96000895AA93E981EA93E9810E94A70DF0DFFD
:100DA600AFDFEEDF0C94FF0BBA93AA931A93B89AAF
:100DB600B99ABA9ABB9AC39ABC9ABD9A76DFC39877
:100DC600A4E6B0E00E94320EC39A10E0123040F45E
:100DD6001A93AFE38EDF1A931395A0EC8ADFF6CF52
:100DE600E1E0E0936002E0E0E0936102E981FA81EC
:100DF6003097A9F0A981BA810E94580EE093640247
:100E0600F093650212960E94580EE0937902F093D1
:100E16007A02A981BA8114960E94580E0AC0E0E0AF
:100E2600F0E0E0936402F0936502E0937902F093B8
:100E36007A02E0937B02F0937C02E1E0E0936602A3
:100E4600E0936702E0936802EFEFE0936902E1E066
:100E5600E0937002E1E7F2E0FA93EA93EFEFEA93A8
:100E6600A8E0B0E00E94E60B04D0E1E018810C9403
:100E7600460C0E947F0E00E030E0E0916102E03017
:100E860009F00FEF383078F4E0E0EA93A32F3F5FE4
:100E960049DF10E0A12F1F5FA03820F4A02F0E9489
:100EA600AD0DF8CFEFCFE0E0EA93A0E03BDFE0E066
:100EB600EA93A0E086D30E94860E0C94650CAA9352
:100EC6001A930A93AC81A03818F4AB81A03420F0B1
:100ED600198108810C94F40BEC81EA93AC8159DFFB
:100EE6001E2F0EDFEB81E770A1E00E94400E0E2F51
:100EF600EA81E03011F0102B03C0E02FE0951E23AD
:100F0600A12F35DF198108810C94F40BAA931A934B
:100F1600ED81EA93AD813DDF1E2FF2DEE981E730F8
:100F260011F0E83039F4EB81EA93AA810E94010CB2
:100F3600EB8308C0E33021F4EB81E095EB8302C03C
:100F4600E03021F4EA81E0951E2302C0E23029F464
:100F5600EA81AB81EA231E2B0EC0E13029F4EA8137
:100F6600AB81EA231E2707C0E43029F4EA81E09525
:100F7600AB81EA2B1E23A12F0E94AD0D1881269668
:100F86000895AA9323970E947D0EA889A03848F455
:100F9600AF85A03430F4AE85A03019F0AD85A03011
:100FA60009F4C8C1EE85E887A889BB27EE85F0E07D
:100FB600AE0FBF1FA138E0E0BE0720F0A889E0E829
:100FC600EA1BEE872D85AF85BB27ED85F0E0AE0FDA
:100FD600BF1FA134E0E0BE0720F0AF85E0E4EA1BC6
:100FE600ED87A985A63009F05BC0EC85E13009F4F0
:100FF600A1C1E33039F4E0917B02F0917C02309795
:1010060009F498C10885ED85E695E695E6953E2FA7
:10101600E22FE77019F4AD852A17E9F0A02FBB2758
:10102600E32FF0E00E94500EAA85BB850E94B10D09
:10103600269526952695532F5F935F5FE22FAF91F6
:10104600EA1748F0102FE12F1150E03019F00E94F6
:10105600B60DF9CFF1CFAE850A1711F1EE85AA8547
:10106600BB85F0E00E94B10DED85E77009F03F5FAA
:1010760020E02F932F5FE32FAF91AE1788F41E85E4
:101086001F931F5FE02FAF91AE1718F40E94B60DA5
:10109600F7CFEE85AE81BF81F0E00E94B10DE9CFBA
:1010A600EF85E7703E2FED85E03009F443C1EA8510
:1010B600FB85EE83FF8310E00889303009F065C0B8
:1010C600AD85A83008F45CC0E985E03011F0E33066
:1010D60009F402C0E73009F402C0E83009F402C09E
:1010E600E63009F402C0E93009F402C0EA3021F41E
:1010F6000A93E8890E94A70D1F931F5FEE85AF91A3
:10110600AE17B8F5A985A63061F43ADEF9DD0E947E
:10111600C30DFA93EA9334DEAE2F0E94480C12DE1A
:1011260027C0E985E93011F450E00EC0EA3011F429
:101136005FEF0AC00E94C30D0E94CC0D5E2FE985A9
:10114600E73011F0E83021F40E94D20D5E2F06C080
:10115600E33011F4509502C0E03021F4A52F0E942F
:10116600AD0D06C00E94D60DEFEFEA93AD85CEDE3B
:10117600C3CFEF85E85FEF87ED85E850ED87D1C0F7
:101186005D8520E0E0E0ED877AC0E32FAD85AE0F08
:10119600A93020F42D85E0E0ED8703C0E8E0E31BED
:1011A6002E2F3A93A22F0E94F60B4E2FE985E6309A
:1011B600F1F41F931F5FEE85AF91AE17B8F40E944E
:1011C600DC0DAE2FE32F0E94480E0E94E30DE32FA5
:1011D600A42F0E94480EE095E1215E2B0E94C30DCC
:1011E600FA93EA93A52F0E94480CE3CF2CC0E9306E
:1011F60011F450E003C0EA30A9F45FEF0E94D20D6B
:10120600AE2FE32F0E94400E5E2F1F931F5FEE85C9
:10121600AF91AE1730F40E94D60D4A93A0E076DE69
:10122600F4CF11C01F931F5FEE85AF91AE1758F430
:101236000E94EE0DAE2FE32F0E94400EEA934A93D2
:10124600AD8564DEEFCFED85E03009F473C0AD8582
:10125600A83028F4ED85E21B5E2FE0E003C0532F93
:10126600ED85E850ED8710E0EF85E85FEF87E8E071
:10127600E31B2E2F0889EA85FB85EE83FF83E52F86
:10128600F0E0E85CFD4F4491E985E630F1F41F9308
:101296001F5FEE85AF91AE17B8F40E94DC0DAE2F3E
:1012A600E22F0E94400E0E94E30DE22FA42F0E941F
:1012B600400EE095E1215E2B0E94C30DFA93EA935E
:1012C600A52F0E94480CE3CF2CC0E93011F450E062
:1012D60003C0EA30A9F45FEF0E94D20DAE2FE22FD1
:1012E6000E94480E5E2F1F931F5FEE85AF91AE17CB
:1012F60030F40E94D60D4A93A0E008DEF4CF11C068
:101306001F931F5FEE85AF91AE1758F40E94EE0D46
:10131600AE2FE22F0E94480EEA934A93AD85F6DD82
:10132600EFCFE885AA85BB85F0E0EA0FFB1FEA87C9
:10133600FB87B9CE0E94840E619608950E94020D25
:101346000E94790E24F0E0E0F0E00C94FF0BA881F7
:10135600B981A038E0E0BE0724F0EFE7F0E00C9496
:10136600FF0BE881F9810C94FF0B0E94020D0E948D
:10137600790E24F0E0E0F0E00C94FF0BA881B9812F
:10138600A034E0E0BE0724F0EFE3F0E00C94FF0B9E
:10139600E881F9810C94FF0BBA93AA9323970E94D4
:1013A600FB0D8F01002E012A19F4E0E0F0E05FC08A
:1013B6000E94020E0F820E94020E0E820E94020EF0
:1013C6000886EB85A885EA1718F4E0E0F0E04FC040
:1013D600F8010F5F1F4F5491A885BB27EE27A50F75
:1013E600BE1FEB85F0E0EA17FB0718F0E0E0F0E03F
:1013F6003EC0EE81E695E695E6954E2FEE81E770C6
:1014060009F04F5FEF81E030A1F0A985BA85EC9332
:10141600A885EB85EA1BF0E0DF01EF81F0E00E9492
:10142600500EDF01E42FF0E00E94500EE00FF11F96
:101436001EC09801E52FF0E00E0F1F1FA885AF5FB5
:10144600A887A150EB85AE1760F4F9012F5F3F4FD7
:10145600A491B0E0E42FF0E00E94500E0E0F1F1F83
:10146600EDCFF901E491A985BA85EC93F8010E94C4
:10147600840E2C960895E0E0E0936202A091630248
:10148600BB270E94070EF0E0AE0FBF1FE091670278
:10149600F0E0AE0FBF1F69DFE09363020895AA93E1
:1014A60021970E94FB0D309709F455C0AF81AA30F1
:1014B60009F44FC0EF81EA93DE0117966DDFAF01A5
:1014C600309709F44AC0E0916602AE81EA0F3E2FDA
:1014D600A0916202BB27F0E0EA0FFB1F8F010138E3
:1014E600E0E01E0718F0032F1127C5DFE091620226
:1014F600EA93E0916302EA93E885EA930E94070E75
:10150600EA93E1E0EA935A934A93A7E03ADDE09141
:101516006202AE81EA0FEA93E0916302EA93E091F8
:101526006602EA930E94070E0E940E0EE091620286
:10153600EA93A09163020E94070EEA0FEA933A9398
:10154600E09167020E940E0EE0E8F0E0E017F10776
:1015560011F491DF02C0009362020E94840E289665
:101566000895BA93AA931A93EC81EA93AC8129D091
:10157600E981FA813196E983FA833197E4911E2F46
:10158600E03019F0A12F8BDFF3CF18812AC1AA937F
:10159600EA81EA93EA81EA93E0916902AA81EA2361
:1015A60019F0E091600202C0E0916102AE2F87DC83
:1015B600E881EE0FE883E03011F4E1E0E883E881AA
:1015C60062C1AA93A981BB27B9DEE0936202A88112
:1015D600BB27CBDEE09363020FC1AA932B970E9431
:1015E6007D0EAC89BB27AADEEC8BAA89BB27A6DEBB
:1015F600EA8BAB89BB27B9DEEB8BA989BB27B5DEA6
:10160600E98BEA89E0936202E989E0936302E1E00B
:10161600E887E989AB89EA1771F51C89AA891A173F
:1016260031F41A93EC89EA93A1E0B1DFC8C0AA8924
:101636001A1730F4EA89E11B0E2F41E050E006C08C
:10164600AA89E12FEA1B0E2F4FEF5FEF3B89E0E0FF
:10165600EE830E94180E38F41A933A933395AA85AE
:1016660096DFEF83F6CFEF81E887140FE02F015066
:10167600E03061F7A4C0EA89AC89EA1739F53B89FD
:10168600A9893A1730F4E989E31B2E2FE1E0F0E04F
:1016960006C0A989E32FEA1B2E2FEFEFFFEFED8798
:1016A600FE871C89E0E0EE830E94180E30F41A9340
:1016B60013950E94200EEF83F7CFEF81E887ED8523
:1016C6003E0FE22F2150E03061F779C0E0E0EE8373
:1016D6000E94180E08F073C01C893B89E1E02E2F8A
:1016E6000E2FAA89BB27EC89F0E0AE1BBF0BAD011C
:1016F60055232AF40FEFFA010E943C0EAF01FA01BE
:10170600EE0FFF1FEF87F88BA989BB27EB89F0E067
:10171600AE1BBF0BAD87BE87AE85AA233AF42FEF6B
:10172600ED85FE850E943C0EED87FE87ED85FE85E4
:10173600EE0FFF1FEB87FC871A933A93A1E027DF92
:10174600E887E0E0E987EA87AD85BE854A175B074B
:10175600BCF0100FEB85FC850E94240EA985BA8586
:101766004A175B072CF4320FAF85B8890E942B0EFF
:101776001A930E94200EE887EA89E11751F718C0EC
:10178600320FEF85F8890E94240EED85FE85A98526
:10179600BA85EA17FB072CF4100FAB85BC850E94AF
:1017A6002B0E1A930E94200EE887E989E31741F76A
:1017B600EB89EF5FEB8BE989EF5FE98B89CF0E94BD
:1017C600840E65960895BA93AA93B981A881109656
:1017D60031F0FC81EB816A8161931197E9F7EB8126
:1017E600FC8125960895AA93E881F0E0E85CFD4F18
:1017F600A491E9810E94400E22960895AA931A9315
:10180600E981E73011F0EA3019F41091600209C05D
:10181600E93019F41091610204C0E830A1F4109186
:101826007002E0916102E03049F0103019F0EFEFFC
:10183600188129C0EA81E095188125C0103019F475
:10184600E0E0188120C0EA8118811DC0BA93AA93EE
:10185600EA81E13021F4E881F981E49114C0E230B3
:1018660029F4A881B9810E945C0E0DC0E33041F4D1
:10187600A881B981E0917902F0917A02099503C0B5
:10188600A881B981EC9123960895AA93EB81E03063
:1018960029F4E881A981BA81EC9314C0E23031F4CD
:1018A600E881A981BA810E94680E0CC0E33051F428
:1018B600E981FA81FA93EA93AA81E0917B02F09199
:1018C6007C02099524960895E5E1EA93E0E0EA931F
:1018D600E5E1EA93AFE30E94F00AE0E0EA93E5E18E
:1018E600EA93EFE3EA93A5E10E94F00AEAE2EA93BB
:1018F600E0E0EA93EAE2EA93AFE30E94F00AE0E06E
:10190600EA93EAE2EA93EFE3EA93AAE20E94F00A94
:10191600E0E5EA930895E0E0EA93ACE4B2E00C94E3
:10192600B40AE0E5EA93EAE0EA93AFE4B2E00895A8
:10193600E4E6EA93E0E0EA93A1E5B2E00C94B40AA7
:10194600E4E6EA93EAE0EA93AFE4B2E00895E8E772
:10195600EA93E0E0EA93A4E5B2E00C94B40AE8E77F
:10196600EA93EAE0EA93ADE4B2E00895E4E1EA93AB
:10197600A6E5B2E00E94B40A042C05280895EEE616
:10198600EA93E4E1EA930895A6E0A09FF001A19FFF
:10199600F00DE358FD4FDF01F901EE0FFF1FAE0F0B
:1019A600BF1FE2E0F0E0ED93FC930895E6E4EA93CE
:1019B600E8E3EA93A1E6B2E00C94B40A0E943C077D
:1019C600E4E1EA93E0E2EA9308950E94B40AA0ED06
:1019D600B7E00C94320EE2E3EA93E0E2EA9308956C
:1019E600E0E5EA93EAE0EA930895E4E6EA93EAE0BA
:1019F600EA930895E8E7EA93EAE0EA930895BA934A
:101A0600AA93A881B9810895A881B9810E94580E28
:101A16000895A881B98118960E94580E0895A88144
:101A2600B98150960E94580E0895E8E0F0E0FA93C6
:101A3600EA930895E7E3F0E0FA93EA930895A7E3BB
:101A4600B0E00E94DF02A4EFB1E00E94320E0E94D5
:101A56003C07042C05280895AAE9B2E00E94B40ABE
:101A6600AFE40895A2EAB2E00E94B40AA8E5089598
:101A7600A4EFB1E00C94320EA881B98114960E94AD
:101A8600580E0895A881B98112960E94580E08959D
:101A9600A881B9811C960E94580E0895A881B98123
:101AA60016960E94580E0895E881F98100841184E3
:101AB600A881B98108950E94580EE015F105089590
:101AC600E0E2F0E0FA93EA9308950E94580EE230BD
:101AD600A0E0FA070895EA93EAE0EA93ADE5B2E0FA
:101AE6000E94B40A4CCFEA93EAE0EA93AFE5B2E08B
:101AF6000E94B40A44CFEA93E0E2EA93ADE5B2E08D
:101B06000E94B40A3CCFEA93E0E2EA93AFE5B2E082
:101B16000E94B40A34CFEA93E4E3EA93ADE5B2E077
:101B26000E94B40A2CCFEA93E4E3EA93AFE5B2E06D
:101B36000E94B40A24CFC198EFEFEABBE881EBBB61
:101B46000E9454060C945806E695E695E695AE2F47
:101B56000C9495060E94BA060C94A506EA0FFB1F84
:101B6600EE83FF830895EC85EA93EF81F88531963D
:101B7600EF83F8873197FA93EA93A0E00C94480C28
:101B8600EC85EA93EF81F8853196EF83F8873197F4
:101B9600089566277727DF01CB010C94290C5A9309
:101BA600AA850C94010C0A930395E889EA935A9343
:101BB60008950A930395A8890E94CC06E423089504
:101BC6005E2FEC85EA93AF81B885882799270E9416
:101BD600290C1E2E08950A930395E889EA93EE854B
:101BE600EA93E985FA853196E987FA873197D1CF65
:101BF6000E947D0EE0916402F09165020895F8015D
:101C06000F5F1F4F04900895E0916402F091650202
:101C16003196E4910895EA93E0E0EA93E0E0F0E09B
:101C2600FA93EA93A9E00C94C407AE81AF5FAE8342
:101C3600A150E0916802AE1708953A93AA850C94D4
:101C4600CA0AA985BA85EA0FFB1FE987FA870895AC
:101C5600E985FA85EA1BFB0BE987FA870895109652
:101C660039F08AEF90E00197F1F7A8951197C9F737
:101C76000895F195E195F0400895EE230E2EEA2F92
:101C860019F0EE0F0A94E9F70895EE230E2EEA2FC7
:101C960019F0E6950A94E9F70895FA9FF02DEB9F5F
:101CA600F00DEA9FE02DF10D0895ED91FC9111974D
:101CB6000895E199FECFFF93FFB7F894AEBBBFBB83
:101CC600E09AEDB3FFBFFF910895E19B02C0A8958E
:101CD600FCCF9FB7F894AEBBBFBBE09A8DB3E817B5
:101CE60019F0EDBBE29AE19A9FBF089500240A1607
:101CF6000B0608955A934A933A932A931A930A9392
:101D060008955D814C813B812A811981088108955E
:00000001FF
